:100000000C94FA000C9422010C9422010C9422010D
:100010000C9422010C9422010C9422010C942201D4
:100020000C9422010C9422010C9449050C94BB05FC
:100030000C9422010C9422010C9422010C942201B4
:100040000C9422010C9422010C9422010C942201A4
:100050000C9422010C9422010C9422010C9489032B
:100060000C9422010C9422010C9422010C94220184
:100070000C9422010C9422010C9422010C94220174
:100080000C9422010C9422010C9422010C94220164
:100090000C9422010C9422010C9422010C94220154
:1000A0000C9422010C9422010C94220177017A0114
:1000B00069016D0173019B019B019B017E0182011E
:1000C00086018C0190019B0196018E0C930C980C7B
:1000D000A20CAC0CF60CF60CF60CB60CC00CCA0C50
:1000E000D40CE10CF60CE90C000000002400270001
:1000F0002A002D00300000000000250028002B0001
:100100002E003100000000002300260029002C00F2
:100110002F00040404040403040502020202040381
:100120000202020206060606060604040202020491
:1001300004040802011040804010204080408008E4
:100140000204018040201002011080102040402055
:100150000000000200090F0000030401000C000071
:100160000000000000000000000000000000000887
:100170000B0002020201000904000001020200005B
:1001800005240010010524010101042402060524B0
:100190000600010705810310004009040100020A5E
:1001A000000000070502024000000705830240002E
:1001B000000403090441726475696E6F204C4C435E
:1001C0000041726475696E6F2059756E00120100EE
:1001D000020000004041234180000101020301129E
:1001E000010002EF020140412341800001010203AE
:1001F0000100950811241FBECFEFDAE0DEBFCDBFAE
:1002000011E0A0E0B1E0EEEFFFE102C005900D9239
:10021000AE35B107D9F722E0AEE5B1E001C01D92DD
:10022000A832B207E1F710E0CAEFD0E004C021978E
:10023000FE010E94F60DC93FD107C9F70E94AA0826
:100240000C94FD0F0C940000CF93DF931F92CDB759
:10025000DEB76983DC01ED91FC910280F381E02D32
:1002600041E050E0BE016F5F7F4F09950F90DF9135
:10027000CF91089583E08093E9008091F200882374
:1002800019F08AE38093E8000895FC018485958540
:1002900097FD0BC09FB7F89482E08093E9008091AE
:1002A000F2009FBF90E0019608959FB7F89482E016
:1002B0008093E9008091F2009FBF90E0089590E064
:1002C000FC013197EF30F105B0F5EA5AFF4F0C947D
:1002D000F60D809180008F7703C0809180008F7D24
:1002E00080938000089580918000877FF9CF84B546
:1002F0008F7702C084B58F7D84BD08958091900072
:100300008F7707C0809190008F7D03C0809190000F
:10031000877F8093900008958091C0008F7703C0FD
:100320008091C0008F7D8093C00008958091C200AD
:10033000877F8093C2000895CF93DF93282F30E00A
:10034000F901E05BFE4F8491F901EF5CFE4FD4911F
:10035000F901EE5EFE4FC491CC2391F081110E9411
:100360005F01EC2FF0E0EE0FFF1FEC5FFE4FA59159
:10037000B491EC91ED2381E090E021F480E002C0A3
:1003800080E090E0DF91CF9108951F93CF93DF93AA
:10039000282F30E0F901E05BFE4F8491F901EF5C1A
:1003A000FE4FD491F901EE5EFE4FC491CC23C9F00B
:1003B000162F81110E945F01EC2FF0E0EE0FFF1F5E
:1003C000EA50FF4FA591B4918FB7F894111105C071
:1003D0009C91ED2FE095E92302C0EC91ED2BEC937D
:1003E0008FBFDF91CF911F910895CF93DF9390E05E
:1003F000FC01EF5CFE4F2491FC01EE5EFE4F849108
:10040000882361F190E0880F991FFC01E851FF4FAC
:10041000C591D491FC01EA50FF4FA591B4916111AF
:1004200009C09FB7F8948881209582238883EC9136
:100430002E230BC0623061F49FB7F8943881822F6D
:10044000809583238883EC912E2B2C939FBF06C02D
:100450008FB7F894E8812E2B28838FBFDF91CF913F
:1004600008953FB7F8948091630190916401A09141
:100470006501B091660126B5A89B05C02F3F19F014
:100480000196A11DB11D3FBFBA2FA92F982F882714
:10049000820F911DA11DB11DBC01CD0142E0660F6F
:1004A000771F881F991F4A95D1F708958F929F92C1
:1004B000AF92BF92CF92DF92EF92FF926B017C01DD
:1004C0000E9431024B015C01C114D104E104F1042A
:1004D000F1F00E943102DC01CB0188199909AA09C7
:1004E000BB09883E9340A105B10570F321E0C21A13
:1004F000D108E108F10888EE880E83E0981EA11C5F
:10050000B11CC114D104E104F10419F7DDCFFF904F
:10051000EF90DF90CF90BF90AF909F908F90089515
:100520008F929F92AF92BF92CF92DF92EF92FF9203
:100530000F931F93CF93DF935C016B018A0180912E
:100540000D01882309F45EC08091C501882309F458
:1005500059C08091C30180FF05C08091E000826096
:100560008093E000E8018AEFF82E93E0E92E2FE374
:10057000822E3AE3932E209709F43DC08FB7F8946A
:10058000E092E9009091E80095FF06C09091F2009A
:10059000282D291B922F01C090E08FBF91110AC016
:1005A000FA94FF2079F161E070E080E090E00E9431
:1005B0005602E1CF292F30E0C217D3070CF49C2F4D
:1005C0008FB7F894E092E9002091E80025FF11C070
:1005D000292F30E0C21BD30BF601915020F041913E
:1005E0004093F100FACFC20ED31E9091E80095FF20
:1005F00013C08FBFC0CF5D9884E68093C4011016EE
:10060000110644F081E090E0F5019383828380E05D
:1006100090E005C0C80103C09092E800EACFDF91E6
:10062000CF911F910F91FF90EF90DF90CF90BF90EF
:10063000AF909F908F90089590910101911104C007
:1006400091E0682F692701C060E088E00C94C50143
:1006500060917D0189E00C94C501CF93C091780130
:100660006C2F8CE00E94C50181E06C2F68278BE025
:10067000CF910C94C501CF93DF931F92CDB7DEB716
:10068000FC018485958597FD05C02FEF3FEF3587E9
:1006900024870BC0CE0101960E941F05019719F413
:1006A000898190E002C08FEF9FEF0F90DF91CF9193
:1006B00008950F931F93CF93DF931F92CDB7DEB7AB
:1006C0008C01FC018485958597FF0EC0CE010196B3
:1006D0000E941F05019719F4298130E002C02FEF15
:1006E0003FEFF80135872487F801848595850F90C1
:1006F000DF91CF911F910F9108952FB7F8946091DA
:100700005F017091600180916101909162012FBF42
:1007100008951F920F920FB60F9211242F933F93BB
:100720008F939F93AF93BF9380915F0190916001EE
:10073000A0916101B091620130915E0123E0230F2D
:100740002D3720F40196A11DB11D05C026E8230F09
:100750000296A11DB11D20935E0180935F019093CD
:100760006001A0936101B093620180916301909157
:100770006401A0916501B09166010196A11DB11DB2
:100780008093630190936401A0936501B093660127
:10079000BF91AF919F918F913F912F910F900FBE7D
:1007A0000F901F90189580911F0281110DC082E05B
:1007B00080931B0284E080931C0210921E02109210
:1007C0001D0281E080931F028BE192E00895409129
:1007D000190250911A022091170230911802421703
:1007E0005307B4F49091E8009570E1F39091E8001C
:1007F00092FD19C08093F1008091190290911A0224
:1008000001968F739927892B19F48EEF8093E80056
:100810008091190290911A02019690931A02809386
:10082000190281E0089580E00895CF92DF92EF925F
:10083000FF920F931F93CF93DF931F92CDB7DEB735
:10084000182F062FE42E862F880F8E5F99830E9423
:10085000E70383E00E94E703F12EC12E9981D92E90
:100860008C2D8F19801798F4F601E7FE02C0849151
:1008700001C080810E94E703182F80E00E94E703F7
:100880008123FFEFCF1ADF0A8111EACF01C081E097
:100890000F90DF91CF911F910F91FF90EF90DF901C
:1008A000CF900895DF92EF92FF920F931F93CF9313
:1008B000DF93D82E8A017B01E40EF51EEB01CE15E5
:1008C000DF0571F0D7FE03C0FE01849101C088816D
:1008D0000E94E70321968111F2CF8FEF9FEF01C0B5
:1008E000C801DF91CF911F910F91FF90EF90DF90A2
:1008F00008950F931F93CF93DF931F92CDB7DEB769
:1009000082E0898342E450E06FE671E080E80E9473
:1009100052040E94D303DC0112960D911C9113978F
:100920000115110569F0D801ED91FC910280F38168
:10093000E02DBE016F5F7F4FC801099597FF07C08B
:1009400089810F90DF91CF911F910F910895F80148
:1009500000851185E5CF615030F02091F100FC0158
:1009600020830196F8CF289884E680932702089583
:10097000CF92DF92EF92FF920F931F93CF93DF936B
:100980006C017A018B01C0E0D0E0CE15DF0589F063
:10099000D8016D918D01D601ED91FC910190F0810E
:1009A000E02DC6010995892B11F47E0102C0219624
:1009B000ECCFC701DF91CF911F910F91FF90EF9086
:1009C000DF90CF9008950E94820E0F931F930E9494
:1009D0007D036093CE017093CF018093D0019093FB
:1009E000D101E091C601F091C7010084F185E02DAD
:1009F00086EC91E0099597FF1FC00E947D0300914E
:100A0000CE011091CF012091D0013091D101DC01B4
:100A1000CB01801B910BA20BB30B0091CA0110916B
:100A2000CB012091CC013091CD0180179107A20715
:100A3000B307B8F28FEF9FEF1F910F910895FC015C
:100A40008091C501811103C08FEF9FEF08959FB77B
:100A5000F89482E08093E9002091F20030E01216D1
:100A6000130614F421E030E02115310559F02898DF
:100A700084E6809327028091F10080838091F200C8
:100A8000882319F09FBFC90108958BE68093E80081
:100A9000F9CF1F920F920FB60F9211248F939F934D
:100AA0008091E1009091E100937F9093E10083FFBA
:100AB0000FC01092E90091E09093EB001092EC00CF
:100AC00092E39093ED001092C50198E09093F000AE
:100AD00082FF20C093E09093E9009091F200992367
:100AE00019F09AE39093E8009091C401992339F0AA
:100AF0009091C40191509093C401992389F19091F0
:100B00002702992339F09091270291509093270260
:100B1000992341F184FF10C08091E2008E7E8160B4
:100B20008093E2008091E1008F7E8093E1008091CC
:100B3000C3018E7E806111C080FF16C08091E200EB
:100B40008E7E80618093E2008091E1008E7E8093B2
:100B5000E1008091C3018E7E81608093C30104C057
:100B60005D9ACDCF289AD6CF9F918F910F900FBECF
:100B70000F901F9018951F920F920FB60F9211248D
:100B8000CF92DF92EF92FF920F931F932F933F9399
:100B90004F935F936F937F938F939F93AF93BF9385
:100BA000EF93FF93CF93DF93CDB7DEB76C97DEBFA4
:100BB000CDBF1092E9008091E80083FFFAC168E0A0
:100BC000CE0145960E94AB0482EF8093E8008D89A8
:100BD00087FF05C09091E80090FFFCCF03C09EEF17
:100BE0009093E800982F907609F0C6C09E892F89CF
:100BF000188D91110CC0803829F48091C201809326
:100C0000F10002C01092F1001092F10047C1422F92
:100C100050E0512B913051F4811140C141305105C8
:100C200009F03CC18091C2018D7F0BC0933061F40B
:100C3000811134C14130510509F030C18091C201A8
:100C400082608093C2012AC1953041F48091E8000E
:100C500080FFFCCF20682093E30020C1963009F08C
:100C60005FC0EB8CFC8C1092E90010921A0210927B
:100C70001902123091F510921802109217020E9478
:100C8000790499E0BE016F5F7F4FDB01E92F1D9270
:100C9000EA95E9F799831A8391E09E8390EA988711
:100CA0009AEF99872091190230911A02275F3F4FDE
:100CB0003C832B838D831092E90010921A021092CC
:100CC0001902F0921802E092170249E050E080E029
:100CD0000E9452040E947904E1C0F0921802E0924E
:100CE00017020E94D303DC011296ED90FC9013973B
:100CF000E114F10409F4C0C0D701ED91FC91048026
:100D0000F581E02DBE016B5E7F4FC701099500970D
:100D100019F00CF0C3C0C6C0F701E084F184E8CF3D
:100D2000973009F4BFC0983021F481E08093F1003E
:100D3000B5C0993009F0B2C0837009F0B3C0E3E2E6
:100D4000F1E081E021E036E39081992361F0809326
:100D5000E9002093EB0091919093EC003093ED002B
:100D60008F5F873089F78EE78093EA001092EA0060
:100D70008F898093C50192C08B8D9C8D1092E90064
:100D800010921A021092190290931802809317027F
:100D9000898D811156C08E899D89913A59F481328D
:100DA00009F080C047E050E066E071E080E00E941A
:100DB000520474C0913209F075C0833289F4888D71
:100DC00090E0982F88272F89822BA0E0B0E08093B5
:100DD000020190930301A0930401B09305015EC04A
:100DE000803269F48091E80082FFFCCF67E086E002
:100DF00091E00E94AB048BEF8093E80006C0823242
:100E000009F04CC08F8980930D018091C101882326
:100E100019F0EEEFFAE002C0E0E0F8E080910601A0
:100E200090910701A0910801B0910901803B944085
:100E3000A105B10509F088C080910D0180FFA0C017
:100E400083C00E94D303DC0112960D911C9113976D
:100E50000115110539F1D801ED91FC910190F08156
:100E6000E02DBE016B5E7F4FC8010995811116C050
:100E7000F80100851185ECCF1130C1F0133091F4E9
:100E80008F89882309F455C08230E9F440E86BE08B
:100E900081EC91E00E941504882321F08EEF80936D
:100EA000E80087C081E28093EB0083C08B8D9C8D2E
:100EB000089711F41093160280911602811136C022
:100EC0006DEC71E038C0813029F440E86BE085EBCF
:100ED00091E0E0CF833031F70E94D303DC0112961A
:100EE000ED90FC9013978E010F5F1F4F6801E11486
:100EF000F10479F0D701ED91FC910680F781E02DA6
:100F0000B801C7010995080F111DF701E084F184AC
:100F1000EECFD8011C92F60101900020E9F731973D
:100F2000BF016C197D0940E0C601B4CF6FED71E0DF
:100F300002C061EB71E06115710509F4B3CFFB01EB
:100F4000449150E080E833CF0FB6F894A895809193
:100F50006000886180936000109260000FBEA895C9
:100F6000EE3F2AE0F20739F08091FE0A9091FF0AE5
:100F70009183808393CF1092FF0A1092FE0A8ECF46
:100F8000EE3F8AE0F80731F0808191819093FF0A6B
:100F90008093FE0A87E797E7918380839BE088E14F
:100FA0000FB6F894A895809360000FBE90936000F0
:100FB00075CF6C960FB6F894DEBF0FBECDBFDF9134
:100FC000CF91FF91EF91BF91AF919F918F917F91C1
:100FD0006F915F914F913F912F911F910F91FF90D2
:100FE000EF90DF90CF900F900FBE0F901F9018954D
:100FF0006115710579F0FB0101900020E9F7319747
:10100000AF01461B570BDC01ED91FC910280F3818F
:10101000E02D099480E090E008954F925F926F92E6
:101020007F92EF92FF920F931F93CF93DF93CDB7F1
:10103000DEB7A1970FB6F894DEBF0FBECDBF7C011F
:10104000FA01CB0119A2223008F42AE08E010F5DCB
:101050001F4F422E512C612C712CBF01A301920114
:101060000E949A0FF901CA01015011096A3014F463
:10107000605D01C0695CD8016C93232B242B252B68
:1010800061F7B801C7010E94F807A1960FB6F8945E
:10109000DEBF0FBECDBFDF91CF911F910F91FF90AB
:1010A000EF907F906F905F904F900895CF92DF9276
:1010B000EF92FF92CF93DF936C01990FEE08FF0838
:1010C000F7FE1CC0E091C601F091C7010190F081CC
:1010D000E02D6DE286EC91E00995EC01442755275F
:1010E000BA014C195D096E097F092AE086EC91E08E
:1010F0000E940D087C01EC0EFD1E08C02AE0B7011D
:10110000A60186EC91E00E940D087C016BE571E080
:1011100086EC91E00E94F8078E0D9F1DDF91CF9124
:10112000FF90EF90DF90CF900895E6ECF1E013820E
:10113000128288EE93E0A0E0B0E084839583A683DA
:10114000B78386E191E0918380838FEF9FEF95874E
:1011500084870895CF93DF9300D000D0CDB7DEB75A
:10116000789484B5826084BD84B5816084BD85B582
:10117000826085BD85B5816085BD80916E0081608E
:1011800080936E0010928100809181008260809334
:101190008100809181008160809381008091800036
:1011A00081608093800080919100826080939100A3
:1011B0008091910081608093910080919000816086
:1011C000809390008091C10084608093C1008091E1
:1011D000C10082608093C1008091C10081608093D2
:1011E000C1008091C30081608093C3008091C000E2
:1011F00082608093C0008091C20081608093C200B1
:1012000080917A00846080937A0080917A00826075
:1012100080937A0080917A00816080937A00809137
:101220007A00806880937A001092C5011092C20102
:101230001092C3018091D70081608093D70080EA2B
:101240008093D80089B5806189BD89B5826089BDE8
:1012500009B400FEFDCF61E070E080E090E00E9404
:1012600056028091D8008F7C80618093D800809155
:10127000E000807F8093E0008091E1008E7E80938B
:10128000E1008DE08093E200559A209AEEEFFFE7AF
:10129000859194918B3F9C4D19F481E08093C1011D
:1012A0001092B5011092B6011092B7011092B801D8
:1012B0001092830110928401109285011092860190
:1012C00060ED77E080E090E00E94560286EC91E0CD
:1012D0009093B4018093B3012BE1E22EF12C109195
:1012E0000D016AE070E080E090E00E94560211116A
:1012F0000BC031E0E31AF10839F064E670E080E0F9
:1013000090E00E945602EBCFE091B301F091B4015E
:101310008FEF9FEF958784870E947D03C0908301A4
:10132000D0908401E0908501F0908601DC01CB0132
:101330008C199D09AE09BF0984369105A105B10537
:1013400038F463E070E080E090E00E945602E4CF61
:101350000E947D03609383017093840180938501D3
:101360009093860169E271E08091B3019091B4019C
:101370000E94F8076AE070E080E090E00E94560268
:1013800081E08093870160E086E00E94F50160E0E3
:1013900087E00E94F50160E085E00E94F50161E0D0
:1013A00084E00E94F50161E083E00E94F50161E0C4
:1013B00082E00E94F50161E08CE00E94F50161E0AD
:1013C0008BE00E94F50161E08AE00E94F50161E096
:1013D00089E00E94F50161E088E00E94F5018FEF4D
:1013E0009FEF9093D3018093D2010E942D0304E6D6
:1013F00010E090E0292E90E0392E0E947D03672BAB
:10140000682B692B09F009C30E947D0362307105C6
:101410008105910508F001C33DC00E947D036093E2
:1014200083017093840180938501909386016BE31F
:1014300071E08091B3019091B4010E94F80763E4D8
:1014400071E08091B3019091B4010E94F8070E946D
:101450007D03AB01BC012AE08091B3019091B401FE
:101460000E940D0865E471E08091B3019091B40190
:101470000E94F80765E070E080E090E00E9456026C
:101480006AE070E080E090E00E945602809187015F
:1014900081111EC30E947D0360937E0170937F01C2
:1014A000809380019093810186E00E949C0121E05D
:1014B000892B09F420E0809100018823B1F02223D8
:1014C000C9F08091780181110DC0109268011092CD
:1014D0006701B1E0B093780180E090E00E94560887
:1014E0000E942D031092000105C0211103C0E1E00C
:1014F000E093000187E00E949C0120917D01892BEF
:1015000041F0211110C0F1E0F0937D010E94280309
:101510000AC0222341F010927D010E9428031092FC
:101520007A011092790180917801882309F46EC0C4
:1015300085E00E949C0121E0892B09F420E0809144
:1015400001018823B9F1222309F460C0109201013E
:1015500080E00E941C0380916701909168010196D0
:1015600090936801809367010E94560880916701FB
:1015700090916801039769F4109278010E942D03FD
:1015800064E670E080E090E00E94560281E00E94F4
:101590001C0380917E0190917F01A0918001B09108
:1015A00081018093690190936A01A0936B01B093CC
:1015B0006C012CC021112AC060917E0170917F01C5
:1015C00080918001909181010E94E80E6B017C0165
:1015D0006091690170916A0180916B0190916C0139
:1015E0000E94E80E20E030E04AEF53E40E94110E22
:1015F0009B01AC01C701B6010E947D0E181634F4A0
:1016000021E02093010180E00E941C0360917E0193
:1016100070917F0180918001909181010E94E80E7C
:101620006B017C0140906E0150906F0160907001E1
:1016300070907101C301B2010E94E80E20E030E415
:101640004CE955E40E94110E4B015C019B01AC0179
:10165000C701B6010E947D0E18169CF480917D0191
:10166000811104C010927A011092790180916D016C
:101670008823F1F060E08AE00E94C50110926D01BC
:1016800017C045284628472899F0A5019401C701AD
:10169000B6010E94E30E87FF0BC080916D0181119E
:1016A00007C061E08AE00E94C50131E030936D011E
:1016B00086EC91E00E944501892B09F469C00E94E3
:1016C000E504FC0197FD11C08D32910591F0C097A2
:1016D0000A9778F0E091C601F091C7010680F78182
:1016E000E02D86EC91E00995EACF80E090E0DC0106
:1016F0002DC020E030E0A901B12CE130F10509F066
:101700003EC2E091C601F091C7010680F781E02D4D
:1017100086EC91E029833A834B835C8309950E9490
:10172000E504FC01C09729813A814B815C810A97CD
:1017300020F3E130F10509F3BB2009F440C288270A
:101740009927DC01821B930BA40BB50B90937A01B4
:101750008093790160E08AE00E94C50164E670E050
:1017600080E090E00E94560261E08AE00E94C5019C
:1017700080917E0190917F01A0918001B0918101C3
:1017800080936E0190936F01A0937001B0937101EB
:1017900060917E0170917F01809180019091810123
:1017A0000E94E80E6B017C016091720170917301DF
:1017B00080917401909175010E94E80E20E030E064
:1017C0004AEF54E40E94110E9B01AC01C701B6011F
:1017D0000E947D0E18160CF04AC00E94D50E2FE113
:1017E00030E040E050E00E94BC0F6B017C014AE019
:1017F000C40ED11CE11CF11C0E94D50E22E030E089
:1018000040E050E00E94BC0F672B682B692B19F059
:101810002FEF3FEF02C021E030E02C9DC0012D9D55
:10182000900D3C9D900D11242091790130917A0109
:10183000820F931F97FF02C080E090E085369105EC
:1018400014F084E690E090937C0180937B0180917A
:101850007E0190917F01A0918001B09181018093E0
:10186000720190937301A0937401B09375018091FC
:101870007D01882341F080917B0190917C019093C0
:101880007A0180937901809178018823A9F02091D1
:10189000790130917A015FE5529FC001539F900D0D
:1018A0001124B8010E94E20D7B016233710534F40A
:1018B00082E3E82EF12C02C0E12CF12C809176011C
:1018C00090917701E816F90609F49AC060E082E089
:1018D0000E94C50161E084E00E94C50161E083E0EF
:1018E0000E94F501E114F10411F460E005C0AFEFCE
:1018F000EA16F10429F461E083E00E94C5017CC08E
:10190000E3E5F1E0849190E0FC013197EF30F105DF
:1019100008F06CC0EB59FF4F0C94F60D84B580684D
:1019200084BDE7BC69C084B5806284BDE8BC64C086
:1019300080918000806880938000F0928900E0921E
:1019400088005AC080918000806280938000F0926D
:101950008B00E0928A0050C0809180008860809364
:101960008000F0928D00E0928C0046C08091900043
:10197000806880939000F0929900E09298003CC0BB
:1019800080919000806280939000F0929B00E092A2
:101990009A0032C080919000886080939000F0920D
:1019A0009D00E0929C0028C08091C00080688093D8
:1019B000C0008091C0008F7B8093C000E092CF0078
:1019C0001BC08091C00080628093C000E092D00074
:1019D00013C08091C20088608093C2008091C200D1
:1019E0008B7F8093C200E092D20006C0F0E8EF1631
:1019F000F1040CF080CF79CFF0927701E09276017C
:101A000061E070E080E090E00E9456022114310411
:101A100009F4F3CC0E940000F0CC0E947D03609397
:101A2000BD017093BE018093BF019093C001C0902F
:101A3000B901D090BA01E090BB01F090BC016C15E7
:101A40007D058E059F0540F46093B9017093BA013E
:101A50008093BB019093BC01C090B901D090BA01B2
:101A6000E090BB01F090BC019B01AC012C193D0939
:101A70004E095F0969017A013AEFC316D104E10406
:101A8000F10408F407CD6093B9017093BA01809313
:101A9000BB019093BC010E947D03C0908301D09054
:101AA0008401E0908501F0908601DC01CB018C1966
:101AB0009D09AE09BF0984369105A105B10508F05D
:101AC000ACCC63E070E080E090E00E945602E3CF8F
:101AD0008091B3019091B401DC01ED91FC910480FF
:101AE000F581E02D0995892B99F38091B3019091AF
:101AF000B401DC01ED91FC910480F581E02D0995A4
:101B0000181619060CF0C6CC8091B3019091B4015F
:101B1000DC01ED91FC910680F781E02D0995992774
:101B20008336910551F08637910509F4B3CC883599
:101B30009105D9F610928701D8CF6EE471E08091BB
:101B4000B3019091B4010E94F8072AE041E050E00F
:101B500060E070E08091B3019091B4010E940D08A3
:101B600065E571E08091B3019091B4010E94F8079E
:101B700062E370E080E090E00E9456028BCCED3290
:101B8000F105D1F0CF01C0970A9708F0BACDAAE0CD
:101B9000B0E00E94DB0F6F01FF0FEE08FF08DC01D1
:101BA000CB018C0D9D1DAE1DBF1D9C01AD012053B1
:101BB000310941095109A5CDBB24B394A2CDDA0165
:101BC000C901C4CD97FB072E16F4009407D077FD0A
:101BD00009D00E94FC0D07FC05D03EF4909581953C
:101BE0009F4F0895709561957F4F0895EE0FFF1FE9
:101BF0000590F491E02D0994AA1BBB1B51E107C08D
:101C0000AA1FBB1FA617B70710F0A61BB70B881F8C
:101C1000991F5A95A9F780959095BC01CD0108951B
:101C20005058BB27AA270E94280E0C94600F0E94D0
:101C3000520F38F00E94590F20F039F49F3F19F4E9
:101C400026F40C944F0F0EF4E095E7FB0C94490F2B
:101C5000E92F0E94710F58F3BA17620773078407C0
:101C6000950720F079F4A6F50C94930F0EF4E09507
:101C70000B2EBA2FA02D0B01B90190010C01CA0146
:101C8000A0011124FF27591B99F0593F50F4503EF1
:101C900068F11A16F040A22F232F342F4427585FE3
:101CA000F3CF469537952795A795F0405395C9F7FB
:101CB0007EF41F16BA0B620B730B840BBAF09150B3
:101CC000A1F0FF0FBB1F661F771F881FC2F70EC052
:101CD000BA0F621F731F841F48F487957795679525
:101CE000B795F7959E3F08F0B0CF9395880F08F011
:101CF0009927EE0F9795879508950E94250F08F470
:101D00008FEF089581E090E0F8940C94FD0F8F928E
:101D10009F92AF92BF92CF92DF92EF92FF92CF93BA
:101D2000DF93EC01688179818A819B81611571055E
:101D30008105910521F464E279ED8BE597E02DE1D1
:101D400033EF41E050E00E94BC0F49015A019B0172
:101D5000AC01A7EAB1E40E94DB0F6B017C01ACEEA1
:101D6000B4EFA50194010E94E90FDC01CB018C0DB9
:101D70009D1DAE1DBF1DB7FF03C00197A109B0484F
:101D800088839983AA83BB83BC01CD019F77DF91B0
:101D9000CF91FF90EF90DF90CF90BF90AF909F904A
:101DA0008F9008950E94870E08958EE091E00E9422
:101DB000870E089560930E0170930F0180931001B8
:101DC0009093110108950E94250F08F481E0089571
:101DD000E89409C097FB3EF49095809570956195C5
:101DE0007F4F8F4F9F4F9923A9F0F92F96E9BB277B
:101DF0009395F695879577956795B795F111F8CFF7
:101E0000FAF4BB0F11F460FF1BC06F5F7F4F8F4F61
:101E10009F4F16C0882311F096E911C0772321F057
:101E20009EE8872F762F05C0662371F096E8862FEF
:101E300070E060E02AF09A95660F771F881FDAF746
:101E4000880F9695879597F90895990F0008550F73
:101E5000AA0BE0E8FEEF16161706E807F907C0F030
:101E600012161306E407F50798F0621B730B840B38
:101E7000950B39F40A2661F0232B242B252B21F412
:101E800008950A2609F4A140A6958FEF811D811DB2
:101E9000089597F99F6780E870E060E008959FEFEC
:101EA00080EC089500240A941616170618060906F1
:101EB000089500240A9412161306140605060895C0
:101EC000092E0394000C11F4882352F0BB0F40F448
:101ED000BF2B11F460FF04C06F5F7F4F8F4F9F4F88
:101EE000089557FD9058440F551F59F05F3F71F00A
:101EF0004795880F97FB991F61F09F3F79F0879571
:101F00000895121613061406551FF2CF4695F1DFF9
:101F100008C0161617061806991FF1CF8695710589
:101F2000610508940895E894BB2766277727CB01BD
:101F300097F90895A1E21A2EAA1BBB1BFD010DC043
:101F4000AA1FBB1FEE1FFF1FA217B307E407F50769
:101F500020F0A21BB30BE40BF50B661F771F881F45
:101F6000991F1A9469F760957095809590959B01DB
:101F7000AC01BD01CF010895052E97FB1EF400941E
:101F80000E94D30F57FD07D00E949A0F07FC03D081
:101F90004EF40C94D30F50954095309521953F4FBA
:101FA0004F4F5F4F089590958095709561957F4F45
:101FB0008F4F9F4F08950E94EE0FA59F900DB49FE5
:101FC000900DA49F800D911D11240895B7FF0C94CE
:101FD000DB0F0E94DB0F821B930B0895A29FB001C1
:101FE000B39FC001A39F700D811D1124911DB29F4D
:0E1FF000700D811D1124911D0895F894FFCFEE
:101FFE000101FFFFFFFF00E10000000000000100F3
:10200E000000000000002401900245013B0359032B
:10201E003A0100C18081000000564D4450565F3198
:10202E007C315F564D4450560D0A00564D44504576
:10203E005F31007C005F564D4450450D0A00564DF1
:0E204E004450435F005F564D4450430D0A005E
:00000001FF
